{
  "address": "0xe7f1725E7734CE288F8367e1Bb143E90bb3F0512",
  "abi": [
    {
      "inputs": [
        {
          "internalType": "address",
          "name": "_token",
          "type": "address"
        },
        {
          "internalType": "uint256",
          "name": "_amount",
          "type": "uint256"
        },
        {
          "internalType": "uint256",
          "name": "_frequency",
          "type": "uint256"
        }
      ],
      "stateMutability": "nonpayable",
      "type": "constructor"
    },
    {
      "anonymous": false,
      "inputs": [
        {
          "indexed": true,
          "internalType": "address",
          "name": "previousOwner",
          "type": "address"
        },
        {
          "indexed": true,
          "internalType": "address",
          "name": "newOwner",
          "type": "address"
        }
      ],
      "name": "OwnershipTransferred",
      "type": "event"
    },
    {
      "anonymous": false,
      "inputs": [
        {
          "indexed": false,
          "internalType": "uint256",
          "name": "_amount",
          "type": "uint256"
        }
      ],
      "name": "funded",
      "type": "event"
    },
    {
      "inputs": [],
      "name": "amount",
      "outputs": [
        {
          "internalType": "uint256",
          "name": "",
          "type": "uint256"
        }
      ],
      "stateMutability": "view",
      "type": "function"
    },
    {
      "inputs": [],
      "name": "balance",
      "outputs": [
        {
          "internalType": "uint256",
          "name": "",
          "type": "uint256"
        }
      ],
      "stateMutability": "view",
      "type": "function"
    },
    {
      "inputs": [],
      "name": "frequency",
      "outputs": [
        {
          "internalType": "uint256",
          "name": "",
          "type": "uint256"
        }
      ],
      "stateMutability": "view",
      "type": "function"
    },
    {
      "inputs": [
        {
          "internalType": "address",
          "name": "_to",
          "type": "address"
        }
      ],
      "name": "fund",
      "outputs": [],
      "stateMutability": "nonpayable",
      "type": "function"
    },
    {
      "inputs": [
        {
          "internalType": "address",
          "name": "",
          "type": "address"
        }
      ],
      "name": "lockTime",
      "outputs": [
        {
          "internalType": "uint256",
          "name": "",
          "type": "uint256"
        }
      ],
      "stateMutability": "view",
      "type": "function"
    },
    {
      "inputs": [],
      "name": "owner",
      "outputs": [
        {
          "internalType": "address",
          "name": "",
          "type": "address"
        }
      ],
      "stateMutability": "view",
      "type": "function"
    },
    {
      "inputs": [],
      "name": "renounceOwnership",
      "outputs": [],
      "stateMutability": "nonpayable",
      "type": "function"
    },
    {
      "inputs": [
        {
          "internalType": "uint256",
          "name": "_amount",
          "type": "uint256"
        }
      ],
      "name": "setAmount",
      "outputs": [],
      "stateMutability": "nonpayable",
      "type": "function"
    },
    {
      "inputs": [
        {
          "internalType": "uint256",
          "name": "_frequency",
          "type": "uint256"
        }
      ],
      "name": "setFrequency",
      "outputs": [],
      "stateMutability": "nonpayable",
      "type": "function"
    },
    {
      "inputs": [],
      "name": "token",
      "outputs": [
        {
          "internalType": "contract IERC20",
          "name": "",
          "type": "address"
        }
      ],
      "stateMutability": "view",
      "type": "function"
    },
    {
      "inputs": [
        {
          "internalType": "address",
          "name": "newOwner",
          "type": "address"
        }
      ],
      "name": "transferOwnership",
      "outputs": [],
      "stateMutability": "nonpayable",
      "type": "function"
    }
  ],
  "transactionHash": "0x057f30b516b0f93399d52c891be8c24b162f5eb247fc9fcf75c0f8de68fad868",
  "args": [
    "0x5FbDB2315678afecb367f032d93F642f64180aa3",
    "1000000000000000000",
    86400
  ],
  "numDeployments": 1,
  "solcInputHash": "eab9d49f02c0efb801c868a960abbf0c",
  "bytecode": "0x60806040523480156200001157600080fd5b506040516200100938038062001009833981810160405281019062000037919062000292565b620000576200004b6200012160201b60201c565b6200012960201b60201c565b600073ffffffffffffffffffffffffffffffffffffffff168373ffffffffffffffffffffffffffffffffffffffff1603620000c9576040517f08c379a0000000000000000000000000000000000000000000000000000000008152600401620000c09062000375565b60405180910390fd5b82600160006101000a81548173ffffffffffffffffffffffffffffffffffffffff021916908373ffffffffffffffffffffffffffffffffffffffff160217905550816002819055508060038190555050505062000397565b600033905090565b60008060009054906101000a900473ffffffffffffffffffffffffffffffffffffffff169050816000806101000a81548173ffffffffffffffffffffffffffffffffffffffff021916908373ffffffffffffffffffffffffffffffffffffffff1602179055508173ffffffffffffffffffffffffffffffffffffffff168173ffffffffffffffffffffffffffffffffffffffff167f8be0079c531659141344cd1fd0a4f28419497f9722a3daafe3b4186f6b6457e060405160405180910390a35050565b600080fd5b600073ffffffffffffffffffffffffffffffffffffffff82169050919050565b60006200021f82620001f2565b9050919050565b620002318162000212565b81146200023d57600080fd5b50565b600081519050620002518162000226565b92915050565b6000819050919050565b6200026c8162000257565b81146200027857600080fd5b50565b6000815190506200028c8162000261565b92915050565b600080600060608486031215620002ae57620002ad620001ed565b5b6000620002be8682870162000240565b9350506020620002d1868287016200027b565b9250506040620002e4868287016200027b565b9150509250925092565b600082825260208201905092915050565b7f4661756365743a2063616e2774207365742074686520746f6b656e206164647260008201527f65737320746f20746865207a65726f2061646472657373000000000000000000602082015250565b60006200035d603783620002ee565b91506200036a82620002ff565b604082019050919050565b6000602082019050818103600083015262000390816200034e565b9050919050565b610c6280620003a76000396000f3fe608060405234801561001057600080fd5b50600436106100a95760003560e01c8063aa8c217c11610071578063aa8c217c1461013e578063b69ef8a81461015c578063ead50da31461017a578063f2fde38b14610198578063f426f03a146101b4578063fc0c546a146101d0576100a9565b806323024408146100ae578063271f88b4146100ca578063715018a6146100e65780638da5cb5b146100f0578063a4beda631461010e575b600080fd5b6100c860048036038101906100c39190610768565b6101ee565b005b6100e460048036038101906100df91906107cb565b6103ea565b005b6100ee6103fc565b005b6100f8610410565b6040516101059190610807565b60405180910390f35b61012860048036038101906101239190610768565b610439565b6040516101359190610831565b60405180910390f35b610146610451565b6040516101539190610831565b60405180910390f35b610164610457565b6040516101719190610831565b60405180910390f35b6101826104fa565b60405161018f9190610831565b60405180910390f35b6101b260048036038101906101ad9190610768565b610500565b005b6101ce60048036038101906101c991906107cb565b610583565b005b6101d8610595565b6040516101e591906108ab565b60405180910390f35b600460008273ffffffffffffffffffffffffffffffffffffffff1673ffffffffffffffffffffffffffffffffffffffff16815260200190815260200160002054421161026f576040517f08c379a000000000000000000000000000000000000000000000000000000000815260040161026690610949565b60405180910390fd5b60025461027a610457565b116102ba576040517f08c379a00000000000000000000000000000000000000000000000000000000081526004016102b1906109db565b60405180910390fd5b600160009054906101000a900473ffffffffffffffffffffffffffffffffffffffff1673ffffffffffffffffffffffffffffffffffffffff1663a9059cbb826002546040518363ffffffff1660e01b81526004016103199291906109fb565b6020604051808303816000875af1158015610338573d6000803e3d6000fd5b505050506040513d601f19601f8201168201806040525081019061035c9190610a5c565b506003544261036b9190610ab8565b600460008373ffffffffffffffffffffffffffffffffffffffff1673ffffffffffffffffffffffffffffffffffffffff168152602001908152602001600020819055507f936f47201eb468366c62d02d7434bd35dc11ca20a76a628ce9909f62838cafca6002546040516103df9190610831565b60405180910390a150565b6103f26105bb565b8060028190555050565b6104046105bb565b61040e6000610639565b565b60008060009054906101000a900473ffffffffffffffffffffffffffffffffffffffff16905090565b60046020528060005260406000206000915090505481565b60025481565b6000600160009054906101000a900473ffffffffffffffffffffffffffffffffffffffff1673ffffffffffffffffffffffffffffffffffffffff166370a08231306040518263ffffffff1660e01b81526004016104b49190610807565b602060405180830381865afa1580156104d1573d6000803e3d6000fd5b505050506040513d601f19601f820116820180604052508101906104f59190610b01565b905090565b60035481565b6105086105bb565b600073ffffffffffffffffffffffffffffffffffffffff168173ffffffffffffffffffffffffffffffffffffffff1603610577576040517f08c379a000000000000000000000000000000000000000000000000000000000815260040161056e90610ba0565b60405180910390fd5b61058081610639565b50565b61058b6105bb565b8060038190555050565b600160009054906101000a900473ffffffffffffffffffffffffffffffffffffffff1681565b6105c36106fd565b73ffffffffffffffffffffffffffffffffffffffff166105e1610410565b73ffffffffffffffffffffffffffffffffffffffff1614610637576040517f08c379a000000000000000000000000000000000000000000000000000000000815260040161062e90610c0c565b60405180910390fd5b565b60008060009054906101000a900473ffffffffffffffffffffffffffffffffffffffff169050816000806101000a81548173ffffffffffffffffffffffffffffffffffffffff021916908373ffffffffffffffffffffffffffffffffffffffff1602179055508173ffffffffffffffffffffffffffffffffffffffff168173ffffffffffffffffffffffffffffffffffffffff167f8be0079c531659141344cd1fd0a4f28419497f9722a3daafe3b4186f6b6457e060405160405180910390a35050565b600033905090565b600080fd5b600073ffffffffffffffffffffffffffffffffffffffff82169050919050565b60006107358261070a565b9050919050565b6107458161072a565b811461075057600080fd5b50565b6000813590506107628161073c565b92915050565b60006020828403121561077e5761077d610705565b5b600061078c84828501610753565b91505092915050565b6000819050919050565b6107a881610795565b81146107b357600080fd5b50565b6000813590506107c58161079f565b92915050565b6000602082840312156107e1576107e0610705565b5b60006107ef848285016107b6565b91505092915050565b6108018161072a565b82525050565b600060208201905061081c60008301846107f8565b92915050565b61082b81610795565b82525050565b60006020820190506108466000830184610822565b92915050565b6000819050919050565b600061087161086c6108678461070a565b61084c565b61070a565b9050919050565b600061088382610856565b9050919050565b600061089582610878565b9050919050565b6108a58161088a565b82525050565b60006020820190506108c0600083018461089c565b92915050565b600082825260208201905092915050565b7f6c6f636b2074696d6520686173206e6f7420657870697265642e20506c65617360008201527f652074727920616761696e206c61746572000000000000000000000000000000602082015250565b60006109336031836108c6565b915061093e826108d7565b604082019050919050565b6000602082019050818103600083015261096281610926565b9050919050565b7f4e6f7420656e6f75676820746f6b656e2066756e647320696e2074686520666160008201527f7563657400000000000000000000000000000000000000000000000000000000602082015250565b60006109c56024836108c6565b91506109d082610969565b604082019050919050565b600060208201905081810360008301526109f4816109b8565b9050919050565b6000604082019050610a1060008301856107f8565b610a1d6020830184610822565b9392505050565b60008115159050919050565b610a3981610a24565b8114610a4457600080fd5b50565b600081519050610a5681610a30565b92915050565b600060208284031215610a7257610a71610705565b5b6000610a8084828501610a47565b91505092915050565b7f4e487b7100000000000000000000000000000000000000000000000000000000600052601160045260246000fd5b6000610ac382610795565b9150610ace83610795565b9250828201905080821115610ae657610ae5610a89565b5b92915050565b600081519050610afb8161079f565b92915050565b600060208284031215610b1757610b16610705565b5b6000610b2584828501610aec565b91505092915050565b7f4f776e61626c653a206e6577206f776e657220697320746865207a65726f206160008201527f6464726573730000000000000000000000000000000000000000000000000000602082015250565b6000610b8a6026836108c6565b9150610b9582610b2e565b604082019050919050565b60006020820190508181036000830152610bb981610b7d565b9050919050565b7f4f776e61626c653a2063616c6c6572206973206e6f7420746865206f776e6572600082015250565b6000610bf66020836108c6565b9150610c0182610bc0565b602082019050919050565b60006020820190508181036000830152610c2581610be9565b905091905056fea26469706673582212209bc7284779f1336b671ef432a53f47f220aa3bd2b1431ebe221a45b732a9c73464736f6c63430008110033",
  "devdoc": {
    "kind": "dev",
    "methods": {
      "owner()": {
        "details": "Returns the address of the current owner."
      },
      "renounceOwnership()": {
        "details": "Leaves the contract without owner. It will not be possible to call `onlyOwner` functions anymore. Can only be called by the current owner. NOTE: Renouncing ownership will leave the contract without an owner, thereby removing any functionality that is only available to the owner."
      },
      "transferOwnership(address)": {
        "details": "Transfers ownership of the contract to a new account (`newOwner`). Can only be called by the current owner."
      }
    },
    "version": 1
  },
  "userdoc": {
    "kind": "user",
    "methods": {},
    "version": 1
  },
  "storageLayout": {
    "storage": [
      {
        "astId": 7,
        "contract": "contracts/Faucet.sol:Faucet",
        "label": "_owner",
        "offset": 0,
        "slot": "0",
        "type": "t_address"
      },
      {
        "astId": 833,
        "contract": "contracts/Faucet.sol:Faucet",
        "label": "token",
        "offset": 0,
        "slot": "1",
        "type": "t_contract(IERC20)777"
      },
      {
        "astId": 835,
        "contract": "contracts/Faucet.sol:Faucet",
        "label": "amount",
        "offset": 0,
        "slot": "2",
        "type": "t_uint256"
      },
      {
        "astId": 837,
        "contract": "contracts/Faucet.sol:Faucet",
        "label": "frequency",
        "offset": 0,
        "slot": "3",
        "type": "t_uint256"
      },
      {
        "astId": 841,
        "contract": "contracts/Faucet.sol:Faucet",
        "label": "lockTime",
        "offset": 0,
        "slot": "4",
        "type": "t_mapping(t_address,t_uint256)"
      }
    ],
    "types": {
      "t_address": {
        "encoding": "inplace",
        "label": "address",
        "numberOfBytes": "20"
      },
      "t_contract(IERC20)777": {
        "encoding": "inplace",
        "label": "contract IERC20",
        "numberOfBytes": "20"
      },
      "t_mapping(t_address,t_uint256)": {
        "encoding": "mapping",
        "key": "t_address",
        "label": "mapping(address => uint256)",
        "numberOfBytes": "32",
        "value": "t_uint256"
      },
      "t_uint256": {
        "encoding": "inplace",
        "label": "uint256",
        "numberOfBytes": "32"
      }
    }
  }
}