{
  "address": "0x9fE46736679d2D9a65F0992F2272dE9f3c7fa6e0",
  "abi": [
    {
      "inputs": [
        {
          "internalType": "address",
          "name": "_token",
          "type": "address"
        },
        {
          "internalType": "uint256",
          "name": "_amount",
          "type": "uint256"
        }
      ],
      "stateMutability": "nonpayable",
      "type": "constructor"
    },
    {
      "inputs": [],
      "name": "AlreadyDepositedForThisGame",
      "type": "error"
    },
    {
      "inputs": [],
      "name": "GameIsNoLongerActive",
      "type": "error"
    },
    {
      "anonymous": false,
      "inputs": [
        {
          "indexed": true,
          "internalType": "address",
          "name": "previousOwner",
          "type": "address"
        },
        {
          "indexed": true,
          "internalType": "address",
          "name": "newOwner",
          "type": "address"
        }
      ],
      "name": "OwnershipTransferred",
      "type": "event"
    },
    {
      "inputs": [
        {
          "internalType": "string",
          "name": "gameId",
          "type": "string"
        }
      ],
      "name": "deposit",
      "outputs": [],
      "stateMutability": "nonpayable",
      "type": "function"
    },
    {
      "inputs": [
        {
          "internalType": "string",
          "name": "",
          "type": "string"
        },
        {
          "internalType": "address",
          "name": "",
          "type": "address"
        }
      ],
      "name": "depositPerUserperGame",
      "outputs": [
        {
          "internalType": "uint256",
          "name": "",
          "type": "uint256"
        }
      ],
      "stateMutability": "view",
      "type": "function"
    },
    {
      "inputs": [
        {
          "internalType": "string",
          "name": "",
          "type": "string"
        }
      ],
      "name": "depositsPerGame",
      "outputs": [
        {
          "internalType": "uint256",
          "name": "",
          "type": "uint256"
        }
      ],
      "stateMutability": "view",
      "type": "function"
    },
    {
      "inputs": [
        {
          "internalType": "string",
          "name": "",
          "type": "string"
        }
      ],
      "name": "isGameActive",
      "outputs": [
        {
          "internalType": "enum Pool.State",
          "name": "",
          "type": "uint8"
        }
      ],
      "stateMutability": "view",
      "type": "function"
    },
    {
      "inputs": [
        {
          "internalType": "string",
          "name": "",
          "type": "string"
        },
        {
          "internalType": "uint256",
          "name": "",
          "type": "uint256"
        }
      ],
      "name": "listOfAllUsersPerGame",
      "outputs": [
        {
          "internalType": "address",
          "name": "",
          "type": "address"
        }
      ],
      "stateMutability": "view",
      "type": "function"
    },
    {
      "inputs": [],
      "name": "owner",
      "outputs": [
        {
          "internalType": "address",
          "name": "",
          "type": "address"
        }
      ],
      "stateMutability": "view",
      "type": "function"
    },
    {
      "inputs": [],
      "name": "renounceOwnership",
      "outputs": [],
      "stateMutability": "nonpayable",
      "type": "function"
    },
    {
      "inputs": [
        {
          "internalType": "uint256",
          "name": "_amount",
          "type": "uint256"
        }
      ],
      "name": "setDepositAmount",
      "outputs": [],
      "stateMutability": "nonpayable",
      "type": "function"
    },
    {
      "inputs": [
        {
          "internalType": "address",
          "name": "newOwner",
          "type": "address"
        }
      ],
      "name": "transferOwnership",
      "outputs": [],
      "stateMutability": "nonpayable",
      "type": "function"
    },
    {
      "inputs": [],
      "name": "trivia",
      "outputs": [
        {
          "internalType": "contract IERC20",
          "name": "",
          "type": "address"
        }
      ],
      "stateMutability": "view",
      "type": "function"
    },
    {
      "inputs": [
        {
          "internalType": "address",
          "name": "winner",
          "type": "address"
        },
        {
          "internalType": "string",
          "name": "gameId",
          "type": "string"
        }
      ],
      "name": "withdrawToWinner",
      "outputs": [],
      "stateMutability": "nonpayable",
      "type": "function"
    }
  ],
  "transactionHash": "0x2e394b8f9e4284d639772e8ba224c05a7a2eb060d40b124554e90de3b12bbb38",
  "args": [
    "0x5FbDB2315678afecb367f032d93F642f64180aa3",
    "1000000000000000000"
  ],
  "numDeployments": 1,
  "solcInputHash": "18f346f4b0a3bc3784ddf49af825ad06",
  "bytecode": "0x60a06040523480156200001157600080fd5b50604051620015923803806200159283398181016040528101906200003791906200020b565b620000576200004b6200009a60201b60201c565b620000a260201b60201c565b8173ffffffffffffffffffffffffffffffffffffffff1660808173ffffffffffffffffffffffffffffffffffffffff168152505080600581905550505062000252565b600033905090565b60008060009054906101000a900473ffffffffffffffffffffffffffffffffffffffff169050816000806101000a81548173ffffffffffffffffffffffffffffffffffffffff021916908373ffffffffffffffffffffffffffffffffffffffff1602179055508173ffffffffffffffffffffffffffffffffffffffff168173ffffffffffffffffffffffffffffffffffffffff167f8be0079c531659141344cd1fd0a4f28419497f9722a3daafe3b4186f6b6457e060405160405180910390a35050565b600080fd5b600073ffffffffffffffffffffffffffffffffffffffff82169050919050565b600062000198826200016b565b9050919050565b620001aa816200018b565b8114620001b657600080fd5b50565b600081519050620001ca816200019f565b92915050565b6000819050919050565b620001e581620001d0565b8114620001f157600080fd5b50565b6000815190506200020581620001da565b92915050565b6000806040838503121562000225576200022462000166565b5b60006200023585828601620001b9565b92505060206200024885828601620001f4565b9150509250929050565b6080516113166200027c6000396000818161022601528181610625015261078c01526113166000f3fe608060405234801561001057600080fd5b50600436106100a95760003560e01c8063715018a611610071578063715018a614610178578063757e5b44146101825780638da5cb5b146101b2578063a26e1186146101d0578063ef30603d146101ec578063f2fde38b14610208576100a9565b806329f952e9146100ae57806335b36437146100cc5780633a207b64146100fc578063653b92ce1461012c5780636d8cee561461015c575b600080fd5b6100b6610224565b6040516100c39190610ac3565b60405180910390f35b6100e660048036038101906100e19190610c76565b610248565b6040516100f39190610ceb565b60405180910390f35b61011660048036038101906101119190610d06565b610283565b6040516101239190610dc6565b60405180910390f35b61014660048036038101906101419190610d06565b6102b9565b6040516101539190610ceb565b60405180910390f35b61017660048036038101906101719190610e0d565b6102e7565b005b6101806102f9565b005b61019c60048036038101906101979190610e3a565b61030d565b6040516101a99190610ea5565b60405180910390f35b6101ba610371565b6040516101c79190610ea5565b60405180910390f35b6101ea60048036038101906101e59190610d06565b61039a565b005b61020660048036038101906102019190610ec0565b6106cb565b005b610222600480360381019061021d9190610f1c565b610877565b005b7f000000000000000000000000000000000000000000000000000000000000000081565b600182805160208101820180518482526020830160208501208183528095505050505050602052806000526040600020600091509150505481565b6004818051602081018201805184825260208301602085012081835280955050505050506000915054906101000a900460ff1681565b6002818051602081018201805184825260208301602085012081835280955050505050506000915090505481565b6102ef6108fa565b8060058190555050565b6103016108fa565b61030b6000610978565b565b600382805160208101820180518482526020830160208501208183528095505050505050818154811061033f57600080fd5b906000526020600020016000915091509054906101000a900473ffffffffffffffffffffffffffffffffffffffff1681565b60008060009054906101000a900473ffffffffffffffffffffffffffffffffffffffff16905090565b6001818160018111156103b0576103af610d4f565b5b6004826040516103c09190610fba565b908152602001604051809103902060009054906101000a900460ff1660018111156103ee576103ed610d4f565b5b0361042e576040517f08c379a00000000000000000000000000000000000000000000000000000000081526004016104259061102e565b60405180910390fd5b60006001846040516104409190610fba565b908152602001604051809103902060003373ffffffffffffffffffffffffffffffffffffffff1673ffffffffffffffffffffffffffffffffffffffff1681526020019081526020016000205411156104c4576040517f685c038e00000000000000000000000000000000000000000000000000000000815260040160405180910390fd5b60006004846040516104d69190610fba565b908152602001604051809103902060006101000a81548160ff0219169083600181111561050657610505610d4f565b5b021790555060055460018460405161051e9190610fba565b908152602001604051809103902060003373ffffffffffffffffffffffffffffffffffffffff1673ffffffffffffffffffffffffffffffffffffffff168152602001908152602001600020819055506005546002846040516105809190610fba565b9081526020016040518091039020600082825461059d919061107d565b925050819055506003836040516105b49190610fba565b9081526020016040518091039020339080600181540180825580915050600190039060005260206000200160009091909190916101000a81548173ffffffffffffffffffffffffffffffffffffffff021916908373ffffffffffffffffffffffffffffffffffffffff1602179055507f000000000000000000000000000000000000000000000000000000000000000073ffffffffffffffffffffffffffffffffffffffff166323b872dd33306005546040518463ffffffff1660e01b8152600401610682939291906110b1565b6020604051808303816000875af11580156106a1573d6000803e3d6000fd5b505050506040513d601f19601f820116820180604052508101906106c59190611120565b50505050565b6106d36108fa565b6000818160018111156106e9576106e8610d4f565b5b6004826040516106f99190610fba565b908152602001604051809103902060009054906101000a900460ff16600181111561072757610726610d4f565b5b14610767576040517f08c379a000000000000000000000000000000000000000000000000000000000815260040161075e90611199565b60405180910390fd5b60006002846040516107799190610fba565b90815260200160405180910390205490507f000000000000000000000000000000000000000000000000000000000000000073ffffffffffffffffffffffffffffffffffffffff1663a9059cbb86836040518363ffffffff1660e01b81526004016107e59291906111b9565b6020604051808303816000875af1158015610804573d6000803e3d6000fd5b505050506040513d601f19601f820116820180604052508101906108289190611120565b50600160048560405161083b9190610fba565b908152602001604051809103902060006101000a81548160ff0219169083600181111561086b5761086a610d4f565b5b02179055505050505050565b61087f6108fa565b600073ffffffffffffffffffffffffffffffffffffffff168173ffffffffffffffffffffffffffffffffffffffff16036108ee576040517f08c379a00000000000000000000000000000000000000000000000000000000081526004016108e590611254565b60405180910390fd5b6108f781610978565b50565b610902610a3c565b73ffffffffffffffffffffffffffffffffffffffff16610920610371565b73ffffffffffffffffffffffffffffffffffffffff1614610976576040517f08c379a000000000000000000000000000000000000000000000000000000000815260040161096d906112c0565b60405180910390fd5b565b60008060009054906101000a900473ffffffffffffffffffffffffffffffffffffffff169050816000806101000a81548173ffffffffffffffffffffffffffffffffffffffff021916908373ffffffffffffffffffffffffffffffffffffffff1602179055508173ffffffffffffffffffffffffffffffffffffffff168173ffffffffffffffffffffffffffffffffffffffff167f8be0079c531659141344cd1fd0a4f28419497f9722a3daafe3b4186f6b6457e060405160405180910390a35050565b600033905090565b600073ffffffffffffffffffffffffffffffffffffffff82169050919050565b6000819050919050565b6000610a89610a84610a7f84610a44565b610a64565b610a44565b9050919050565b6000610a9b82610a6e565b9050919050565b6000610aad82610a90565b9050919050565b610abd81610aa2565b82525050565b6000602082019050610ad86000830184610ab4565b92915050565b6000604051905090565b600080fd5b600080fd5b600080fd5b600080fd5b6000601f19601f8301169050919050565b7f4e487b7100000000000000000000000000000000000000000000000000000000600052604160045260246000fd5b610b4582610afc565b810181811067ffffffffffffffff82111715610b6457610b63610b0d565b5b80604052505050565b6000610b77610ade565b9050610b838282610b3c565b919050565b600067ffffffffffffffff821115610ba357610ba2610b0d565b5b610bac82610afc565b9050602081019050919050565b82818337600083830152505050565b6000610bdb610bd684610b88565b610b6d565b905082815260208101848484011115610bf757610bf6610af7565b5b610c02848285610bb9565b509392505050565b600082601f830112610c1f57610c1e610af2565b5b8135610c2f848260208601610bc8565b91505092915050565b6000610c4382610a44565b9050919050565b610c5381610c38565b8114610c5e57600080fd5b50565b600081359050610c7081610c4a565b92915050565b60008060408385031215610c8d57610c8c610ae8565b5b600083013567ffffffffffffffff811115610cab57610caa610aed565b5b610cb785828601610c0a565b9250506020610cc885828601610c61565b9150509250929050565b6000819050919050565b610ce581610cd2565b82525050565b6000602082019050610d006000830184610cdc565b92915050565b600060208284031215610d1c57610d1b610ae8565b5b600082013567ffffffffffffffff811115610d3a57610d39610aed565b5b610d4684828501610c0a565b91505092915050565b7f4e487b7100000000000000000000000000000000000000000000000000000000600052602160045260246000fd5b60028110610d8f57610d8e610d4f565b5b50565b6000819050610da082610d7e565b919050565b6000610db082610d92565b9050919050565b610dc081610da5565b82525050565b6000602082019050610ddb6000830184610db7565b92915050565b610dea81610cd2565b8114610df557600080fd5b50565b600081359050610e0781610de1565b92915050565b600060208284031215610e2357610e22610ae8565b5b6000610e3184828501610df8565b91505092915050565b60008060408385031215610e5157610e50610ae8565b5b600083013567ffffffffffffffff811115610e6f57610e6e610aed565b5b610e7b85828601610c0a565b9250506020610e8c85828601610df8565b9150509250929050565b610e9f81610c38565b82525050565b6000602082019050610eba6000830184610e96565b92915050565b60008060408385031215610ed757610ed6610ae8565b5b6000610ee585828601610c61565b925050602083013567ffffffffffffffff811115610f0657610f05610aed565b5b610f1285828601610c0a565b9150509250929050565b600060208284031215610f3257610f31610ae8565b5b6000610f4084828501610c61565b91505092915050565b600081519050919050565b600081905092915050565b60005b83811015610f7d578082015181840152602081019050610f62565b60008484015250505050565b6000610f9482610f49565b610f9e8185610f54565b9350610fae818560208601610f5f565b80840191505092915050565b6000610fc68284610f89565b915081905092915050565b600082825260208201905092915050565b7f496e76616c6964207374617465204465706f7369740000000000000000000000600082015250565b6000611018601583610fd1565b915061102382610fe2565b602082019050919050565b600060208201905081810360008301526110478161100b565b9050919050565b7f4e487b7100000000000000000000000000000000000000000000000000000000600052601160045260246000fd5b600061108882610cd2565b915061109383610cd2565b92508282019050808211156110ab576110aa61104e565b5b92915050565b60006060820190506110c66000830186610e96565b6110d36020830185610e96565b6110e06040830184610cdc565b949350505050565b60008115159050919050565b6110fd816110e8565b811461110857600080fd5b50565b60008151905061111a816110f4565b92915050565b60006020828403121561113657611135610ae8565b5b60006111448482850161110b565b91505092915050565b7f496e76616c696420737461746520576974686472617700000000000000000000600082015250565b6000611183601683610fd1565b915061118e8261114d565b602082019050919050565b600060208201905081810360008301526111b281611176565b9050919050565b60006040820190506111ce6000830185610e96565b6111db6020830184610cdc565b9392505050565b7f4f776e61626c653a206e6577206f776e657220697320746865207a65726f206160008201527f6464726573730000000000000000000000000000000000000000000000000000602082015250565b600061123e602683610fd1565b9150611249826111e2565b604082019050919050565b6000602082019050818103600083015261126d81611231565b9050919050565b7f4f776e61626c653a2063616c6c6572206973206e6f7420746865206f776e6572600082015250565b60006112aa602083610fd1565b91506112b582611274565b602082019050919050565b600060208201905081810360008301526112d98161129d565b905091905056fea2646970667358221220bcf7f3e5770884671233e6140b656e05f833c8d2de192c286e2bcb6a71ae16bd64736f6c63430008110033",
  "devdoc": {
    "kind": "dev",
    "methods": {
      "owner()": {
        "details": "Returns the address of the current owner."
      },
      "renounceOwnership()": {
        "details": "Leaves the contract without owner. It will not be possible to call `onlyOwner` functions anymore. Can only be called by the current owner. NOTE: Renouncing ownership will leave the contract without an owner, thereby removing any functionality that is only available to the owner."
      },
      "transferOwnership(address)": {
        "details": "Transfers ownership of the contract to a new account (`newOwner`). Can only be called by the current owner."
      }
    },
    "version": 1
  },
  "userdoc": {
    "kind": "user",
    "methods": {},
    "version": 1
  },
  "storageLayout": {
    "storage": [
      {
        "astId": 7,
        "contract": "contracts/Pool.sol:Pool",
        "label": "_owner",
        "offset": 0,
        "slot": "0",
        "type": "t_address"
      },
      {
        "astId": 228,
        "contract": "contracts/Pool.sol:Pool",
        "label": "depositPerUserperGame",
        "offset": 0,
        "slot": "1",
        "type": "t_mapping(t_string_memory_ptr,t_mapping(t_address,t_uint256))"
      },
      {
        "astId": 232,
        "contract": "contracts/Pool.sol:Pool",
        "label": "depositsPerGame",
        "offset": 0,
        "slot": "2",
        "type": "t_mapping(t_string_memory_ptr,t_uint256)"
      },
      {
        "astId": 237,
        "contract": "contracts/Pool.sol:Pool",
        "label": "listOfAllUsersPerGame",
        "offset": 0,
        "slot": "3",
        "type": "t_mapping(t_string_memory_ptr,t_array(t_address)dyn_storage)"
      },
      {
        "astId": 245,
        "contract": "contracts/Pool.sol:Pool",
        "label": "isGameActive",
        "offset": 0,
        "slot": "4",
        "type": "t_mapping(t_string_memory_ptr,t_enum(State)240)"
      },
      {
        "astId": 247,
        "contract": "contracts/Pool.sol:Pool",
        "label": "depositAmount",
        "offset": 0,
        "slot": "5",
        "type": "t_uint256"
      }
    ],
    "types": {
      "t_address": {
        "encoding": "inplace",
        "label": "address",
        "numberOfBytes": "20"
      },
      "t_array(t_address)dyn_storage": {
        "base": "t_address",
        "encoding": "dynamic_array",
        "label": "address[]",
        "numberOfBytes": "32"
      },
      "t_enum(State)240": {
        "encoding": "inplace",
        "label": "enum Pool.State",
        "numberOfBytes": "1"
      },
      "t_mapping(t_address,t_uint256)": {
        "encoding": "mapping",
        "key": "t_address",
        "label": "mapping(address => uint256)",
        "numberOfBytes": "32",
        "value": "t_uint256"
      },
      "t_mapping(t_string_memory_ptr,t_array(t_address)dyn_storage)": {
        "encoding": "mapping",
        "key": "t_string_memory_ptr",
        "label": "mapping(string => address[])",
        "numberOfBytes": "32",
        "value": "t_array(t_address)dyn_storage"
      },
      "t_mapping(t_string_memory_ptr,t_enum(State)240)": {
        "encoding": "mapping",
        "key": "t_string_memory_ptr",
        "label": "mapping(string => enum Pool.State)",
        "numberOfBytes": "32",
        "value": "t_enum(State)240"
      },
      "t_mapping(t_string_memory_ptr,t_mapping(t_address,t_uint256))": {
        "encoding": "mapping",
        "key": "t_string_memory_ptr",
        "label": "mapping(string => mapping(address => uint256))",
        "numberOfBytes": "32",
        "value": "t_mapping(t_address,t_uint256)"
      },
      "t_mapping(t_string_memory_ptr,t_uint256)": {
        "encoding": "mapping",
        "key": "t_string_memory_ptr",
        "label": "mapping(string => uint256)",
        "numberOfBytes": "32",
        "value": "t_uint256"
      },
      "t_string_memory_ptr": {
        "encoding": "bytes",
        "label": "string",
        "numberOfBytes": "32"
      },
      "t_uint256": {
        "encoding": "inplace",
        "label": "uint256",
        "numberOfBytes": "32"
      }
    }
  }
}