{
  "address": "0x9fE46736679d2D9a65F0992F2272dE9f3c7fa6e0",
  "abi": [
    {
      "inputs": [
        {
          "internalType": "address",
          "name": "_token",
          "type": "address"
        },
        {
          "internalType": "uint256",
          "name": "_amount",
          "type": "uint256"
        }
      ],
      "stateMutability": "nonpayable",
      "type": "constructor"
    },
    {
      "inputs": [],
      "name": "AlreadyDepositedForThisGame",
      "type": "error"
    },
    {
      "anonymous": false,
      "inputs": [
        {
          "indexed": true,
          "internalType": "address",
          "name": "previousOwner",
          "type": "address"
        },
        {
          "indexed": true,
          "internalType": "address",
          "name": "newOwner",
          "type": "address"
        }
      ],
      "name": "OwnershipTransferred",
      "type": "event"
    },
    {
      "inputs": [
        {
          "internalType": "string",
          "name": "gameId",
          "type": "string"
        }
      ],
      "name": "deposit",
      "outputs": [],
      "stateMutability": "nonpayable",
      "type": "function"
    },
    {
      "inputs": [
        {
          "internalType": "string",
          "name": "",
          "type": "string"
        },
        {
          "internalType": "address",
          "name": "",
          "type": "address"
        }
      ],
      "name": "depositPerUserperGame",
      "outputs": [
        {
          "internalType": "uint256",
          "name": "",
          "type": "uint256"
        }
      ],
      "stateMutability": "view",
      "type": "function"
    },
    {
      "inputs": [
        {
          "internalType": "string",
          "name": "",
          "type": "string"
        }
      ],
      "name": "depositsPerGame",
      "outputs": [
        {
          "internalType": "uint256",
          "name": "",
          "type": "uint256"
        }
      ],
      "stateMutability": "view",
      "type": "function"
    },
    {
      "inputs": [
        {
          "internalType": "string",
          "name": "",
          "type": "string"
        },
        {
          "internalType": "uint256",
          "name": "",
          "type": "uint256"
        }
      ],
      "name": "listOfAllUsersPerGame",
      "outputs": [
        {
          "internalType": "address",
          "name": "",
          "type": "address"
        }
      ],
      "stateMutability": "view",
      "type": "function"
    },
    {
      "inputs": [],
      "name": "owner",
      "outputs": [
        {
          "internalType": "address",
          "name": "",
          "type": "address"
        }
      ],
      "stateMutability": "view",
      "type": "function"
    },
    {
      "inputs": [],
      "name": "renounceOwnership",
      "outputs": [],
      "stateMutability": "nonpayable",
      "type": "function"
    },
    {
      "inputs": [
        {
          "internalType": "uint256",
          "name": "_amount",
          "type": "uint256"
        }
      ],
      "name": "setDepositAmount",
      "outputs": [],
      "stateMutability": "nonpayable",
      "type": "function"
    },
    {
      "inputs": [
        {
          "internalType": "address",
          "name": "newOwner",
          "type": "address"
        }
      ],
      "name": "transferOwnership",
      "outputs": [],
      "stateMutability": "nonpayable",
      "type": "function"
    },
    {
      "inputs": [],
      "name": "trivia",
      "outputs": [
        {
          "internalType": "contract IERC20",
          "name": "",
          "type": "address"
        }
      ],
      "stateMutability": "view",
      "type": "function"
    },
    {
      "inputs": [
        {
          "internalType": "address",
          "name": "winner",
          "type": "address"
        }
      ],
      "name": "withdrawToWinner",
      "outputs": [],
      "stateMutability": "nonpayable",
      "type": "function"
    }
  ],
  "transactionHash": "0x43f6c2eb8f411c6f2ee1ffeadb5ec237f44b3af28fd40d138c3d6911b8d885c8",
  "args": [
    "0x5FbDB2315678afecb367f032d93F642f64180aa3",
    "1000000000000000000"
  ],
  "numDeployments": 1,
  "solcInputHash": "992eb5c96a51a619fcdfea2929e87081",
  "bytecode": "0x60a06040523480156200001157600080fd5b50604051620012643803806200126483398181016040528101906200003791906200020b565b620000576200004b6200009a60201b60201c565b620000a260201b60201c565b8173ffffffffffffffffffffffffffffffffffffffff1660808173ffffffffffffffffffffffffffffffffffffffff168152505080600481905550505062000252565b600033905090565b60008060009054906101000a900473ffffffffffffffffffffffffffffffffffffffff169050816000806101000a81548173ffffffffffffffffffffffffffffffffffffffff021916908373ffffffffffffffffffffffffffffffffffffffff1602179055508173ffffffffffffffffffffffffffffffffffffffff168173ffffffffffffffffffffffffffffffffffffffff167f8be0079c531659141344cd1fd0a4f28419497f9722a3daafe3b4186f6b6457e060405160405180910390a35050565b600080fd5b600073ffffffffffffffffffffffffffffffffffffffff82169050919050565b600062000198826200016b565b9050919050565b620001aa816200018b565b8114620001b657600080fd5b50565b600081519050620001ca816200019f565b92915050565b6000819050919050565b620001e581620001d0565b8114620001f157600080fd5b50565b6000815190506200020581620001da565b92915050565b6000806040838503121562000225576200022462000166565b5b60006200023585828601620001b9565b92505060206200024885828601620001f4565b9150509250929050565b608051610fe162000283600039600081816101eb01528181610335015281816103d101526106220152610fe16000f3fe608060405234801561001057600080fd5b506004361061009e5760003560e01c8063757e5b4411610066578063757e5b44146101475780638da5cb5b146101775780639e3149e814610195578063a26e1186146101b1578063f2fde38b146101cd5761009e565b806329f952e9146100a357806335b36437146100c1578063653b92ce146100f15780636d8cee5614610121578063715018a61461013d575b600080fd5b6100ab6101e9565b6040516100b89190610912565b60405180910390f35b6100db60048036038101906100d69190610ac5565b61020d565b6040516100e89190610b3a565b60405180910390f35b61010b60048036038101906101069190610b55565b610248565b6040516101189190610b3a565b60405180910390f35b61013b60048036038101906101369190610bca565b610276565b005b610145610288565b005b610161600480360381019061015c9190610bf7565b61029c565b60405161016e9190610c62565b60405180910390f35b61017f610300565b60405161018c9190610c62565b60405180910390f35b6101af60048036038101906101aa9190610c7d565b610329565b005b6101cb60048036038101906101c69190610b55565b610472565b005b6101e760048036038101906101e29190610c7d565b6106c6565b005b7f000000000000000000000000000000000000000000000000000000000000000081565b600182805160208101820180518482526020830160208501208183528095505050505050602052806000526040600020600091509150505481565b6002818051602081018201805184825260208301602085012081835280955050505050506000915090505481565b61027e610749565b8060048190555050565b610290610749565b61029a60006107c7565b565b60038280516020810182018051848252602083016020850120818352809550505050505081815481106102ce57600080fd5b906000526020600020016000915091509054906101000a900473ffffffffffffffffffffffffffffffffffffffff1681565b60008060009054906101000a900473ffffffffffffffffffffffffffffffffffffffff16905090565b610331610749565b60007f000000000000000000000000000000000000000000000000000000000000000073ffffffffffffffffffffffffffffffffffffffff166370a08231306040518263ffffffff1660e01b815260040161038c9190610c62565b602060405180830381865afa1580156103a9573d6000803e3d6000fd5b505050506040513d601f19601f820116820180604052508101906103cd9190610cbf565b90507f000000000000000000000000000000000000000000000000000000000000000073ffffffffffffffffffffffffffffffffffffffff1663a9059cbb83836040518363ffffffff1660e01b815260040161042a929190610cec565b6020604051808303816000875af1158015610449573d6000803e3d6000fd5b505050506040513d601f19601f8201168201806040525081019061046d9190610d4d565b505050565b60006001826040516104849190610deb565b908152602001604051809103902060003373ffffffffffffffffffffffffffffffffffffffff1673ffffffffffffffffffffffffffffffffffffffff168152602001908152602001600020541115610508576040517f685c038e00000000000000000000000000000000000000000000000000000000815260040160405180910390fd5b60045460018260405161051b9190610deb565b908152602001604051809103902060003373ffffffffffffffffffffffffffffffffffffffff1673ffffffffffffffffffffffffffffffffffffffff1681526020019081526020016000208190555060045460028260405161057d9190610deb565b9081526020016040518091039020600082825461059a9190610e31565b925050819055506003816040516105b19190610deb565b9081526020016040518091039020339080600181540180825580915050600190039060005260206000200160009091909190916101000a81548173ffffffffffffffffffffffffffffffffffffffff021916908373ffffffffffffffffffffffffffffffffffffffff1602179055507f000000000000000000000000000000000000000000000000000000000000000073ffffffffffffffffffffffffffffffffffffffff166323b872dd33306004546040518463ffffffff1660e01b815260040161067f93929190610e65565b6020604051808303816000875af115801561069e573d6000803e3d6000fd5b505050506040513d601f19601f820116820180604052508101906106c29190610d4d565b5050565b6106ce610749565b600073ffffffffffffffffffffffffffffffffffffffff168173ffffffffffffffffffffffffffffffffffffffff160361073d576040517f08c379a000000000000000000000000000000000000000000000000000000000815260040161073490610f1f565b60405180910390fd5b610746816107c7565b50565b61075161088b565b73ffffffffffffffffffffffffffffffffffffffff1661076f610300565b73ffffffffffffffffffffffffffffffffffffffff16146107c5576040517f08c379a00000000000000000000000000000000000000000000000000000000081526004016107bc90610f8b565b60405180910390fd5b565b60008060009054906101000a900473ffffffffffffffffffffffffffffffffffffffff169050816000806101000a81548173ffffffffffffffffffffffffffffffffffffffff021916908373ffffffffffffffffffffffffffffffffffffffff1602179055508173ffffffffffffffffffffffffffffffffffffffff168173ffffffffffffffffffffffffffffffffffffffff167f8be0079c531659141344cd1fd0a4f28419497f9722a3daafe3b4186f6b6457e060405160405180910390a35050565b600033905090565b600073ffffffffffffffffffffffffffffffffffffffff82169050919050565b6000819050919050565b60006108d86108d36108ce84610893565b6108b3565b610893565b9050919050565b60006108ea826108bd565b9050919050565b60006108fc826108df565b9050919050565b61090c816108f1565b82525050565b60006020820190506109276000830184610903565b92915050565b6000604051905090565b600080fd5b600080fd5b600080fd5b600080fd5b6000601f19601f8301169050919050565b7f4e487b7100000000000000000000000000000000000000000000000000000000600052604160045260246000fd5b6109948261094b565b810181811067ffffffffffffffff821117156109b3576109b261095c565b5b80604052505050565b60006109c661092d565b90506109d2828261098b565b919050565b600067ffffffffffffffff8211156109f2576109f161095c565b5b6109fb8261094b565b9050602081019050919050565b82818337600083830152505050565b6000610a2a610a25846109d7565b6109bc565b905082815260208101848484011115610a4657610a45610946565b5b610a51848285610a08565b509392505050565b600082601f830112610a6e57610a6d610941565b5b8135610a7e848260208601610a17565b91505092915050565b6000610a9282610893565b9050919050565b610aa281610a87565b8114610aad57600080fd5b50565b600081359050610abf81610a99565b92915050565b60008060408385031215610adc57610adb610937565b5b600083013567ffffffffffffffff811115610afa57610af961093c565b5b610b0685828601610a59565b9250506020610b1785828601610ab0565b9150509250929050565b6000819050919050565b610b3481610b21565b82525050565b6000602082019050610b4f6000830184610b2b565b92915050565b600060208284031215610b6b57610b6a610937565b5b600082013567ffffffffffffffff811115610b8957610b8861093c565b5b610b9584828501610a59565b91505092915050565b610ba781610b21565b8114610bb257600080fd5b50565b600081359050610bc481610b9e565b92915050565b600060208284031215610be057610bdf610937565b5b6000610bee84828501610bb5565b91505092915050565b60008060408385031215610c0e57610c0d610937565b5b600083013567ffffffffffffffff811115610c2c57610c2b61093c565b5b610c3885828601610a59565b9250506020610c4985828601610bb5565b9150509250929050565b610c5c81610a87565b82525050565b6000602082019050610c776000830184610c53565b92915050565b600060208284031215610c9357610c92610937565b5b6000610ca184828501610ab0565b91505092915050565b600081519050610cb981610b9e565b92915050565b600060208284031215610cd557610cd4610937565b5b6000610ce384828501610caa565b91505092915050565b6000604082019050610d016000830185610c53565b610d0e6020830184610b2b565b9392505050565b60008115159050919050565b610d2a81610d15565b8114610d3557600080fd5b50565b600081519050610d4781610d21565b92915050565b600060208284031215610d6357610d62610937565b5b6000610d7184828501610d38565b91505092915050565b600081519050919050565b600081905092915050565b60005b83811015610dae578082015181840152602081019050610d93565b60008484015250505050565b6000610dc582610d7a565b610dcf8185610d85565b9350610ddf818560208601610d90565b80840191505092915050565b6000610df78284610dba565b915081905092915050565b7f4e487b7100000000000000000000000000000000000000000000000000000000600052601160045260246000fd5b6000610e3c82610b21565b9150610e4783610b21565b9250828201905080821115610e5f57610e5e610e02565b5b92915050565b6000606082019050610e7a6000830186610c53565b610e876020830185610c53565b610e946040830184610b2b565b949350505050565b600082825260208201905092915050565b7f4f776e61626c653a206e6577206f776e657220697320746865207a65726f206160008201527f6464726573730000000000000000000000000000000000000000000000000000602082015250565b6000610f09602683610e9c565b9150610f1482610ead565b604082019050919050565b60006020820190508181036000830152610f3881610efc565b9050919050565b7f4f776e61626c653a2063616c6c6572206973206e6f7420746865206f776e6572600082015250565b6000610f75602083610e9c565b9150610f8082610f3f565b602082019050919050565b60006020820190508181036000830152610fa481610f68565b905091905056fea2646970667358221220cabb0e3bf3034f04657d5d8143e0f9f5b7c004eef98ccbdb70833f23a300fda264736f6c63430008110033",
  "devdoc": {
    "kind": "dev",
    "methods": {
      "owner()": {
        "details": "Returns the address of the current owner."
      },
      "renounceOwnership()": {
        "details": "Leaves the contract without owner. It will not be possible to call `onlyOwner` functions anymore. Can only be called by the current owner. NOTE: Renouncing ownership will leave the contract without an owner, thereby removing any functionality that is only available to the owner."
      },
      "transferOwnership(address)": {
        "details": "Transfers ownership of the contract to a new account (`newOwner`). Can only be called by the current owner."
      }
    },
    "version": 1
  },
  "userdoc": {
    "kind": "user",
    "methods": {},
    "version": 1
  },
  "storageLayout": {
    "storage": [
      {
        "astId": 7,
        "contract": "contracts/Pool.sol:Pool",
        "label": "_owner",
        "offset": 0,
        "slot": "0",
        "type": "t_address"
      },
      {
        "astId": 228,
        "contract": "contracts/Pool.sol:Pool",
        "label": "depositPerUserperGame",
        "offset": 0,
        "slot": "1",
        "type": "t_mapping(t_string_memory_ptr,t_mapping(t_address,t_uint256))"
      },
      {
        "astId": 232,
        "contract": "contracts/Pool.sol:Pool",
        "label": "depositsPerGame",
        "offset": 0,
        "slot": "2",
        "type": "t_mapping(t_string_memory_ptr,t_uint256)"
      },
      {
        "astId": 237,
        "contract": "contracts/Pool.sol:Pool",
        "label": "listOfAllUsersPerGame",
        "offset": 0,
        "slot": "3",
        "type": "t_mapping(t_string_memory_ptr,t_array(t_address)dyn_storage)"
      },
      {
        "astId": 239,
        "contract": "contracts/Pool.sol:Pool",
        "label": "depositAmount",
        "offset": 0,
        "slot": "4",
        "type": "t_uint256"
      }
    ],
    "types": {
      "t_address": {
        "encoding": "inplace",
        "label": "address",
        "numberOfBytes": "20"
      },
      "t_array(t_address)dyn_storage": {
        "base": "t_address",
        "encoding": "dynamic_array",
        "label": "address[]",
        "numberOfBytes": "32"
      },
      "t_mapping(t_address,t_uint256)": {
        "encoding": "mapping",
        "key": "t_address",
        "label": "mapping(address => uint256)",
        "numberOfBytes": "32",
        "value": "t_uint256"
      },
      "t_mapping(t_string_memory_ptr,t_array(t_address)dyn_storage)": {
        "encoding": "mapping",
        "key": "t_string_memory_ptr",
        "label": "mapping(string => address[])",
        "numberOfBytes": "32",
        "value": "t_array(t_address)dyn_storage"
      },
      "t_mapping(t_string_memory_ptr,t_mapping(t_address,t_uint256))": {
        "encoding": "mapping",
        "key": "t_string_memory_ptr",
        "label": "mapping(string => mapping(address => uint256))",
        "numberOfBytes": "32",
        "value": "t_mapping(t_address,t_uint256)"
      },
      "t_mapping(t_string_memory_ptr,t_uint256)": {
        "encoding": "mapping",
        "key": "t_string_memory_ptr",
        "label": "mapping(string => uint256)",
        "numberOfBytes": "32",
        "value": "t_uint256"
      },
      "t_string_memory_ptr": {
        "encoding": "bytes",
        "label": "string",
        "numberOfBytes": "32"
      },
      "t_uint256": {
        "encoding": "inplace",
        "label": "uint256",
        "numberOfBytes": "32"
      }
    }
  }
}