{
  "address": "0xCf7Ed3AccA5a467e9e704C703E8D87F634fB0Fc9",
  "abi": [
    {
      "inputs": [],
      "stateMutability": "nonpayable",
      "type": "constructor"
    },
    {
      "anonymous": false,
      "inputs": [
        {
          "indexed": true,
          "internalType": "address",
          "name": "owner",
          "type": "address"
        },
        {
          "indexed": true,
          "internalType": "address",
          "name": "approved",
          "type": "address"
        },
        {
          "indexed": true,
          "internalType": "uint256",
          "name": "tokenId",
          "type": "uint256"
        }
      ],
      "name": "Approval",
      "type": "event"
    },
    {
      "anonymous": false,
      "inputs": [
        {
          "indexed": true,
          "internalType": "address",
          "name": "owner",
          "type": "address"
        },
        {
          "indexed": true,
          "internalType": "address",
          "name": "operator",
          "type": "address"
        },
        {
          "indexed": false,
          "internalType": "bool",
          "name": "approved",
          "type": "bool"
        }
      ],
      "name": "ApprovalForAll",
      "type": "event"
    },
    {
      "anonymous": false,
      "inputs": [
        {
          "indexed": true,
          "internalType": "address",
          "name": "from",
          "type": "address"
        },
        {
          "indexed": true,
          "internalType": "address",
          "name": "to",
          "type": "address"
        },
        {
          "indexed": true,
          "internalType": "uint256",
          "name": "tokenId",
          "type": "uint256"
        }
      ],
      "name": "Transfer",
      "type": "event"
    },
    {
      "inputs": [
        {
          "internalType": "address",
          "name": "to",
          "type": "address"
        },
        {
          "internalType": "uint256",
          "name": "tokenId",
          "type": "uint256"
        }
      ],
      "name": "approve",
      "outputs": [],
      "stateMutability": "nonpayable",
      "type": "function"
    },
    {
      "inputs": [
        {
          "internalType": "address",
          "name": "player",
          "type": "address"
        },
        {
          "internalType": "string",
          "name": "tokenURI",
          "type": "string"
        }
      ],
      "name": "awardWinner",
      "outputs": [
        {
          "internalType": "uint256",
          "name": "",
          "type": "uint256"
        }
      ],
      "stateMutability": "nonpayable",
      "type": "function"
    },
    {
      "inputs": [
        {
          "internalType": "address",
          "name": "owner",
          "type": "address"
        }
      ],
      "name": "balanceOf",
      "outputs": [
        {
          "internalType": "uint256",
          "name": "",
          "type": "uint256"
        }
      ],
      "stateMutability": "view",
      "type": "function"
    },
    {
      "inputs": [
        {
          "internalType": "uint256",
          "name": "tokenId",
          "type": "uint256"
        }
      ],
      "name": "getApproved",
      "outputs": [
        {
          "internalType": "address",
          "name": "",
          "type": "address"
        }
      ],
      "stateMutability": "view",
      "type": "function"
    },
    {
      "inputs": [
        {
          "internalType": "address",
          "name": "owner",
          "type": "address"
        },
        {
          "internalType": "address",
          "name": "operator",
          "type": "address"
        }
      ],
      "name": "isApprovedForAll",
      "outputs": [
        {
          "internalType": "bool",
          "name": "",
          "type": "bool"
        }
      ],
      "stateMutability": "view",
      "type": "function"
    },
    {
      "inputs": [],
      "name": "name",
      "outputs": [
        {
          "internalType": "string",
          "name": "",
          "type": "string"
        }
      ],
      "stateMutability": "view",
      "type": "function"
    },
    {
      "inputs": [
        {
          "internalType": "uint256",
          "name": "tokenId",
          "type": "uint256"
        }
      ],
      "name": "ownerOf",
      "outputs": [
        {
          "internalType": "address",
          "name": "",
          "type": "address"
        }
      ],
      "stateMutability": "view",
      "type": "function"
    },
    {
      "inputs": [
        {
          "internalType": "address",
          "name": "from",
          "type": "address"
        },
        {
          "internalType": "address",
          "name": "to",
          "type": "address"
        },
        {
          "internalType": "uint256",
          "name": "tokenId",
          "type": "uint256"
        }
      ],
      "name": "safeTransferFrom",
      "outputs": [],
      "stateMutability": "nonpayable",
      "type": "function"
    },
    {
      "inputs": [
        {
          "internalType": "address",
          "name": "from",
          "type": "address"
        },
        {
          "internalType": "address",
          "name": "to",
          "type": "address"
        },
        {
          "internalType": "uint256",
          "name": "tokenId",
          "type": "uint256"
        },
        {
          "internalType": "bytes",
          "name": "data",
          "type": "bytes"
        }
      ],
      "name": "safeTransferFrom",
      "outputs": [],
      "stateMutability": "nonpayable",
      "type": "function"
    },
    {
      "inputs": [
        {
          "internalType": "address",
          "name": "operator",
          "type": "address"
        },
        {
          "internalType": "bool",
          "name": "approved",
          "type": "bool"
        }
      ],
      "name": "setApprovalForAll",
      "outputs": [],
      "stateMutability": "nonpayable",
      "type": "function"
    },
    {
      "inputs": [
        {
          "internalType": "bytes4",
          "name": "interfaceId",
          "type": "bytes4"
        }
      ],
      "name": "supportsInterface",
      "outputs": [
        {
          "internalType": "bool",
          "name": "",
          "type": "bool"
        }
      ],
      "stateMutability": "view",
      "type": "function"
    },
    {
      "inputs": [],
      "name": "symbol",
      "outputs": [
        {
          "internalType": "string",
          "name": "",
          "type": "string"
        }
      ],
      "stateMutability": "view",
      "type": "function"
    },
    {
      "inputs": [
        {
          "internalType": "uint256",
          "name": "tokenId",
          "type": "uint256"
        }
      ],
      "name": "tokenURI",
      "outputs": [
        {
          "internalType": "string",
          "name": "",
          "type": "string"
        }
      ],
      "stateMutability": "view",
      "type": "function"
    },
    {
      "inputs": [
        {
          "internalType": "address",
          "name": "from",
          "type": "address"
        },
        {
          "internalType": "address",
          "name": "to",
          "type": "address"
        },
        {
          "internalType": "uint256",
          "name": "tokenId",
          "type": "uint256"
        }
      ],
      "name": "transferFrom",
      "outputs": [],
      "stateMutability": "nonpayable",
      "type": "function"
    }
  ],
  "transactionHash": "0x9073dd31dbe736770d37efe9a931d542b4f118ba4f053617624502f5fcd03571",
  "args": [],
  "numDeployments": 1,
  "solcInputHash": "fd7efd8b012c13ff37f1a0504acf6162",
  "bytecode": "0x60806040523480156200001157600080fd5b506040518060400160405280600681526020017f54726f70687900000000000000000000000000000000000000000000000000008152506040518060400160405280600381526020017f594947000000000000000000000000000000000000000000000000000000000081525081600090816200008f919062000324565b508060019081620000a1919062000324565b5050506200040b565b600081519050919050565b7f4e487b7100000000000000000000000000000000000000000000000000000000600052604160045260246000fd5b7f4e487b7100000000000000000000000000000000000000000000000000000000600052602260045260246000fd5b600060028204905060018216806200012c57607f821691505b602082108103620001425762000141620000e4565b5b50919050565b60008190508160005260206000209050919050565b60006020601f8301049050919050565b600082821b905092915050565b600060088302620001ac7fffffffffffffffffffffffffffffffffffffffffffffffffffffffffffffffff826200016d565b620001b886836200016d565b95508019841693508086168417925050509392505050565b6000819050919050565b6000819050919050565b600062000205620001ff620001f984620001d0565b620001da565b620001d0565b9050919050565b6000819050919050565b6200022183620001e4565b6200023962000230826200020c565b8484546200017a565b825550505050565b600090565b6200025062000241565b6200025d81848462000216565b505050565b5b8181101562000285576200027960008262000246565b60018101905062000263565b5050565b601f821115620002d4576200029e8162000148565b620002a9846200015d565b81016020851015620002b9578190505b620002d1620002c8856200015d565b83018262000262565b50505b505050565b600082821c905092915050565b6000620002f960001984600802620002d9565b1980831691505092915050565b6000620003148383620002e6565b9150826002028217905092915050565b6200032f82620000aa565b67ffffffffffffffff8111156200034b576200034a620000b5565b5b62000357825462000113565b6200036482828562000289565b600060209050601f8311600181146200039c576000841562000387578287015190505b62000393858262000306565b86555062000403565b601f198416620003ac8662000148565b60005b82811015620003d657848901518255600182019150602085019450602081019050620003af565b86831015620003f65784890151620003f2601f891682620002e6565b8355505b6001600288020188555050505b505050505050565b612bfe806200041b6000396000f3fe608060405234801561001057600080fd5b50600436106100ea5760003560e01c80636352211e1161008c578063a22cb46511610066578063a22cb4651461026f578063b88d4fde1461028b578063c87b56dd146102a7578063e985e9c5146102d7576100ea565b80636352211e146101f157806370a082311461022157806395d89b4114610251576100ea565b8063095ea7b3116100c8578063095ea7b31461016d57806323b872dd1461018957806342842e0e146101a557806356394f91146101c1576100ea565b806301ffc9a7146100ef57806306fdde031461011f578063081812fc1461013d575b600080fd5b61010960048036038101906101049190611a56565b610307565b6040516101169190611a9e565b60405180910390f35b6101276103e9565b6040516101349190611b49565b60405180910390f35b61015760048036038101906101529190611ba1565b61047b565b6040516101649190611c0f565b60405180910390f35b61018760048036038101906101829190611c56565b6104c1565b005b6101a3600480360381019061019e9190611c96565b6105d8565b005b6101bf60048036038101906101ba9190611c96565b610638565b005b6101db60048036038101906101d69190611e1e565b610658565b6040516101e89190611e89565b60405180910390f35b61020b60048036038101906102069190611ba1565b61068f565b6040516102189190611c0f565b60405180910390f35b61023b60048036038101906102369190611ea4565b610715565b6040516102489190611e89565b60405180910390f35b6102596107cc565b6040516102669190611b49565b60405180910390f35b61028960048036038101906102849190611efd565b61085e565b005b6102a560048036038101906102a09190611fde565b610874565b005b6102c160048036038101906102bc9190611ba1565b6108d6565b6040516102ce9190611b49565b60405180910390f35b6102f160048036038101906102ec9190612061565b6109e8565b6040516102fe9190611a9e565b60405180910390f35b60007f80ac58cd000000000000000000000000000000000000000000000000000000007bffffffffffffffffffffffffffffffffffffffffffffffffffffffff1916827bffffffffffffffffffffffffffffffffffffffffffffffffffffffff191614806103d257507f5b5e139f000000000000000000000000000000000000000000000000000000007bffffffffffffffffffffffffffffffffffffffffffffffffffffffff1916827bffffffffffffffffffffffffffffffffffffffffffffffffffffffff1916145b806103e257506103e182610a7c565b5b9050919050565b6060600080546103f8906120d0565b80601f0160208091040260200160405190810160405280929190818152602001828054610424906120d0565b80156104715780601f1061044657610100808354040283529160200191610471565b820191906000526020600020905b81548152906001019060200180831161045457829003601f168201915b5050505050905090565b600061048682610ae6565b6004600083815260200190815260200160002060009054906101000a900473ffffffffffffffffffffffffffffffffffffffff169050919050565b60006104cc8261068f565b90508073ffffffffffffffffffffffffffffffffffffffff168373ffffffffffffffffffffffffffffffffffffffff160361053c576040517f08c379a000000000000000000000000000000000000000000000000000000000815260040161053390612173565b60405180910390fd5b8073ffffffffffffffffffffffffffffffffffffffff1661055b610b31565b73ffffffffffffffffffffffffffffffffffffffff16148061058a575061058981610584610b31565b6109e8565b5b6105c9576040517f08c379a00000000000000000000000000000000000000000000000000000000081526004016105c090612205565b60405180910390fd5b6105d38383610b39565b505050565b6105e96105e3610b31565b82610bf2565b610628576040517f08c379a000000000000000000000000000000000000000000000000000000000815260040161061f90612297565b60405180910390fd5b610633838383610c87565b505050565b61065383838360405180602001604052806000815250610874565b505050565b6000806106656007610f80565b90506106718482610f8e565b61067b81846111ab565b6106856007611218565b8091505092915050565b60008061069b8361122e565b9050600073ffffffffffffffffffffffffffffffffffffffff168173ffffffffffffffffffffffffffffffffffffffff160361070c576040517f08c379a000000000000000000000000000000000000000000000000000000000815260040161070390612303565b60405180910390fd5b80915050919050565b60008073ffffffffffffffffffffffffffffffffffffffff168273ffffffffffffffffffffffffffffffffffffffff1603610785576040517f08c379a000000000000000000000000000000000000000000000000000000000815260040161077c90612395565b60405180910390fd5b600360008373ffffffffffffffffffffffffffffffffffffffff1673ffffffffffffffffffffffffffffffffffffffff168152602001908152602001600020549050919050565b6060600180546107db906120d0565b80601f0160208091040260200160405190810160405280929190818152602001828054610807906120d0565b80156108545780601f1061082957610100808354040283529160200191610854565b820191906000526020600020905b81548152906001019060200180831161083757829003601f168201915b5050505050905090565b610870610869610b31565b838361126b565b5050565b61088561087f610b31565b83610bf2565b6108c4576040517f08c379a00000000000000000000000000000000000000000000000000000000081526004016108bb90612297565b60405180910390fd5b6108d0848484846113d7565b50505050565b60606108e182610ae6565b6000600660008481526020019081526020016000208054610901906120d0565b80601f016020809104026020016040519081016040528092919081815260200182805461092d906120d0565b801561097a5780601f1061094f5761010080835404028352916020019161097a565b820191906000526020600020905b81548152906001019060200180831161095d57829003601f168201915b50505050509050600061098b611433565b905060008151036109a05781925050506109e3565b6000825111156109d55780826040516020016109bd9291906123f1565b604051602081830303815290604052925050506109e3565b6109de8461144a565b925050505b919050565b6000600560008473ffffffffffffffffffffffffffffffffffffffff1673ffffffffffffffffffffffffffffffffffffffff16815260200190815260200160002060008373ffffffffffffffffffffffffffffffffffffffff1673ffffffffffffffffffffffffffffffffffffffff16815260200190815260200160002060009054906101000a900460ff16905092915050565b60007f01ffc9a7000000000000000000000000000000000000000000000000000000007bffffffffffffffffffffffffffffffffffffffffffffffffffffffff1916827bffffffffffffffffffffffffffffffffffffffffffffffffffffffff1916149050919050565b610aef816114b2565b610b2e576040517f08c379a0000000000000000000000000000000000000000000000000000000008152600401610b2590612303565b60405180910390fd5b50565b600033905090565b816004600083815260200190815260200160002060006101000a81548173ffffffffffffffffffffffffffffffffffffffff021916908373ffffffffffffffffffffffffffffffffffffffff160217905550808273ffffffffffffffffffffffffffffffffffffffff16610bac8361068f565b73ffffffffffffffffffffffffffffffffffffffff167f8c5be1e5ebec7d5bd14f71427d1e84f3dd0314c0f7b2291e5b200ac8c7c3b92560405160405180910390a45050565b600080610bfe8361068f565b90508073ffffffffffffffffffffffffffffffffffffffff168473ffffffffffffffffffffffffffffffffffffffff161480610c405750610c3f81856109e8565b5b80610c7e57508373ffffffffffffffffffffffffffffffffffffffff16610c668461047b565b73ffffffffffffffffffffffffffffffffffffffff16145b91505092915050565b8273ffffffffffffffffffffffffffffffffffffffff16610ca78261068f565b73ffffffffffffffffffffffffffffffffffffffff1614610cfd576040517f08c379a0000000000000000000000000000000000000000000000000000000008152600401610cf490612487565b60405180910390fd5b600073ffffffffffffffffffffffffffffffffffffffff168273ffffffffffffffffffffffffffffffffffffffff1603610d6c576040517f08c379a0000000000000000000000000000000000000000000000000000000008152600401610d6390612519565b60405180910390fd5b610d7983838360016114f3565b8273ffffffffffffffffffffffffffffffffffffffff16610d998261068f565b73ffffffffffffffffffffffffffffffffffffffff1614610def576040517f08c379a0000000000000000000000000000000000000000000000000000000008152600401610de690612487565b60405180910390fd5b6004600082815260200190815260200160002060006101000a81549073ffffffffffffffffffffffffffffffffffffffff02191690556001600360008573ffffffffffffffffffffffffffffffffffffffff1673ffffffffffffffffffffffffffffffffffffffff168152602001908152602001600020600082825403925050819055506001600360008473ffffffffffffffffffffffffffffffffffffffff1673ffffffffffffffffffffffffffffffffffffffff16815260200190815260200160002060008282540192505081905550816002600083815260200190815260200160002060006101000a81548173ffffffffffffffffffffffffffffffffffffffff021916908373ffffffffffffffffffffffffffffffffffffffff160217905550808273ffffffffffffffffffffffffffffffffffffffff168473ffffffffffffffffffffffffffffffffffffffff167fddf252ad1be2c89b69c2b068fc378daa952ba7f163c4a11628f55a4df523b3ef60405160405180910390a4610f7b8383836001611619565b505050565b600081600001549050919050565b600073ffffffffffffffffffffffffffffffffffffffff168273ffffffffffffffffffffffffffffffffffffffff1603610ffd576040517f08c379a0000000000000000000000000000000000000000000000000000000008152600401610ff490612585565b60405180910390fd5b611006816114b2565b15611046576040517f08c379a000000000000000000000000000000000000000000000000000000000815260040161103d906125f1565b60405180910390fd5b6110546000838360016114f3565b61105d816114b2565b1561109d576040517f08c379a0000000000000000000000000000000000000000000000000000000008152600401611094906125f1565b60405180910390fd5b6001600360008473ffffffffffffffffffffffffffffffffffffffff1673ffffffffffffffffffffffffffffffffffffffff16815260200190815260200160002060008282540192505081905550816002600083815260200190815260200160002060006101000a81548173ffffffffffffffffffffffffffffffffffffffff021916908373ffffffffffffffffffffffffffffffffffffffff160217905550808273ffffffffffffffffffffffffffffffffffffffff16600073ffffffffffffffffffffffffffffffffffffffff167fddf252ad1be2c89b69c2b068fc378daa952ba7f163c4a11628f55a4df523b3ef60405160405180910390a46111a7600083836001611619565b5050565b6111b4826114b2565b6111f3576040517f08c379a00000000000000000000000000000000000000000000000000000000081526004016111ea90612683565b60405180910390fd5b80600660008481526020019081526020016000209081611213919061284f565b505050565b6001816000016000828254019250508190555050565b60006002600083815260200190815260200160002060009054906101000a900473ffffffffffffffffffffffffffffffffffffffff169050919050565b8173ffffffffffffffffffffffffffffffffffffffff168373ffffffffffffffffffffffffffffffffffffffff16036112d9576040517f08c379a00000000000000000000000000000000000000000000000000000000081526004016112d09061296d565b60405180910390fd5b80600560008573ffffffffffffffffffffffffffffffffffffffff1673ffffffffffffffffffffffffffffffffffffffff16815260200190815260200160002060008473ffffffffffffffffffffffffffffffffffffffff1673ffffffffffffffffffffffffffffffffffffffff16815260200190815260200160002060006101000a81548160ff0219169083151502179055508173ffffffffffffffffffffffffffffffffffffffff168373ffffffffffffffffffffffffffffffffffffffff167f17307eab39ab6107e8899845ad3d59bd9653f200f220920489ca2b5937696c31836040516113ca9190611a9e565b60405180910390a3505050565b6113e2848484610c87565b6113ee8484848461161f565b61142d576040517f08c379a0000000000000000000000000000000000000000000000000000000008152600401611424906129ff565b60405180910390fd5b50505050565b606060405180602001604052806000815250905090565b606061145582610ae6565b600061145f611433565b9050600081511161147f57604051806020016040528060008152506114aa565b80611489846117a6565b60405160200161149a9291906123f1565b6040516020818303038152906040525b915050919050565b60008073ffffffffffffffffffffffffffffffffffffffff166114d48361122e565b73ffffffffffffffffffffffffffffffffffffffff1614159050919050565b600181111561161357600073ffffffffffffffffffffffffffffffffffffffff168473ffffffffffffffffffffffffffffffffffffffff16146115875780600360008673ffffffffffffffffffffffffffffffffffffffff1673ffffffffffffffffffffffffffffffffffffffff168152602001908152602001600020600082825461157f9190612a4e565b925050819055505b600073ffffffffffffffffffffffffffffffffffffffff168373ffffffffffffffffffffffffffffffffffffffff16146116125780600360008573ffffffffffffffffffffffffffffffffffffffff1673ffffffffffffffffffffffffffffffffffffffff168152602001908152602001600020600082825461160a9190612a82565b925050819055505b5b50505050565b50505050565b60006116408473ffffffffffffffffffffffffffffffffffffffff16611874565b15611799578373ffffffffffffffffffffffffffffffffffffffff1663150b7a02611669610b31565b8786866040518563ffffffff1660e01b815260040161168b9493929190612b0b565b6020604051808303816000875af19250505080156116c757506040513d601f19601f820116820180604052508101906116c49190612b6c565b60015b611749573d80600081146116f7576040519150601f19603f3d011682016040523d82523d6000602084013e6116fc565b606091505b506000815103611741576040517f08c379a0000000000000000000000000000000000000000000000000000000008152600401611738906129ff565b60405180910390fd5b805181602001fd5b63150b7a0260e01b7bffffffffffffffffffffffffffffffffffffffffffffffffffffffff1916817bffffffffffffffffffffffffffffffffffffffffffffffffffffffff19161491505061179e565b600190505b949350505050565b6060600060016117b584611897565b01905060008167ffffffffffffffff8111156117d4576117d3611cf3565b5b6040519080825280601f01601f1916602001820160405280156118065781602001600182028036833780820191505090505b509050600082602001820190505b600115611869578080600190039150507f3031323334353637383961626364656600000000000000000000000000000000600a86061a8153600a858161185d5761185c612b99565b5b04945060008503611814575b819350505050919050565b6000808273ffffffffffffffffffffffffffffffffffffffff163b119050919050565b600080600090507a184f03e93ff9f4daa797ed6e38ed64bf6a1f01000000000000000083106118f5577a184f03e93ff9f4daa797ed6e38ed64bf6a1f01000000000000000083816118eb576118ea612b99565b5b0492506040810190505b6d04ee2d6d415b85acef81000000008310611932576d04ee2d6d415b85acef8100000000838161192857611927612b99565b5b0492506020810190505b662386f26fc10000831061196157662386f26fc10000838161195757611956612b99565b5b0492506010810190505b6305f5e100831061198a576305f5e10083816119805761197f612b99565b5b0492506008810190505b61271083106119af5761271083816119a5576119a4612b99565b5b0492506004810190505b606483106119d257606483816119c8576119c7612b99565b5b0492506002810190505b600a83106119e1576001810190505b80915050919050565b6000604051905090565b600080fd5b600080fd5b60007fffffffff0000000000000000000000000000000000000000000000000000000082169050919050565b611a33816119fe565b8114611a3e57600080fd5b50565b600081359050611a5081611a2a565b92915050565b600060208284031215611a6c57611a6b6119f4565b5b6000611a7a84828501611a41565b91505092915050565b60008115159050919050565b611a9881611a83565b82525050565b6000602082019050611ab36000830184611a8f565b92915050565b600081519050919050565b600082825260208201905092915050565b60005b83811015611af3578082015181840152602081019050611ad8565b60008484015250505050565b6000601f19601f8301169050919050565b6000611b1b82611ab9565b611b258185611ac4565b9350611b35818560208601611ad5565b611b3e81611aff565b840191505092915050565b60006020820190508181036000830152611b638184611b10565b905092915050565b6000819050919050565b611b7e81611b6b565b8114611b8957600080fd5b50565b600081359050611b9b81611b75565b92915050565b600060208284031215611bb757611bb66119f4565b5b6000611bc584828501611b8c565b91505092915050565b600073ffffffffffffffffffffffffffffffffffffffff82169050919050565b6000611bf982611bce565b9050919050565b611c0981611bee565b82525050565b6000602082019050611c246000830184611c00565b92915050565b611c3381611bee565b8114611c3e57600080fd5b50565b600081359050611c5081611c2a565b92915050565b60008060408385031215611c6d57611c6c6119f4565b5b6000611c7b85828601611c41565b9250506020611c8c85828601611b8c565b9150509250929050565b600080600060608486031215611caf57611cae6119f4565b5b6000611cbd86828701611c41565b9350506020611cce86828701611c41565b9250506040611cdf86828701611b8c565b9150509250925092565b600080fd5b600080fd5b7f4e487b7100000000000000000000000000000000000000000000000000000000600052604160045260246000fd5b611d2b82611aff565b810181811067ffffffffffffffff82111715611d4a57611d49611cf3565b5b80604052505050565b6000611d5d6119ea565b9050611d698282611d22565b919050565b600067ffffffffffffffff821115611d8957611d88611cf3565b5b611d9282611aff565b9050602081019050919050565b82818337600083830152505050565b6000611dc1611dbc84611d6e565b611d53565b905082815260208101848484011115611ddd57611ddc611cee565b5b611de8848285611d9f565b509392505050565b600082601f830112611e0557611e04611ce9565b5b8135611e15848260208601611dae565b91505092915050565b60008060408385031215611e3557611e346119f4565b5b6000611e4385828601611c41565b925050602083013567ffffffffffffffff811115611e6457611e636119f9565b5b611e7085828601611df0565b9150509250929050565b611e8381611b6b565b82525050565b6000602082019050611e9e6000830184611e7a565b92915050565b600060208284031215611eba57611eb96119f4565b5b6000611ec884828501611c41565b91505092915050565b611eda81611a83565b8114611ee557600080fd5b50565b600081359050611ef781611ed1565b92915050565b60008060408385031215611f1457611f136119f4565b5b6000611f2285828601611c41565b9250506020611f3385828601611ee8565b9150509250929050565b600067ffffffffffffffff821115611f5857611f57611cf3565b5b611f6182611aff565b9050602081019050919050565b6000611f81611f7c84611f3d565b611d53565b905082815260208101848484011115611f9d57611f9c611cee565b5b611fa8848285611d9f565b509392505050565b600082601f830112611fc557611fc4611ce9565b5b8135611fd5848260208601611f6e565b91505092915050565b60008060008060808587031215611ff857611ff76119f4565b5b600061200687828801611c41565b945050602061201787828801611c41565b935050604061202887828801611b8c565b925050606085013567ffffffffffffffff811115612049576120486119f9565b5b61205587828801611fb0565b91505092959194509250565b60008060408385031215612078576120776119f4565b5b600061208685828601611c41565b925050602061209785828601611c41565b9150509250929050565b7f4e487b7100000000000000000000000000000000000000000000000000000000600052602260045260246000fd5b600060028204905060018216806120e857607f821691505b6020821081036120fb576120fa6120a1565b5b50919050565b7f4552433732313a20617070726f76616c20746f2063757272656e74206f776e6560008201527f7200000000000000000000000000000000000000000000000000000000000000602082015250565b600061215d602183611ac4565b915061216882612101565b604082019050919050565b6000602082019050818103600083015261218c81612150565b9050919050565b7f4552433732313a20617070726f76652063616c6c6572206973206e6f7420746f60008201527f6b656e206f776e6572206f7220617070726f76656420666f7220616c6c000000602082015250565b60006121ef603d83611ac4565b91506121fa82612193565b604082019050919050565b6000602082019050818103600083015261221e816121e2565b9050919050565b7f4552433732313a2063616c6c6572206973206e6f7420746f6b656e206f776e6560008201527f72206f7220617070726f76656400000000000000000000000000000000000000602082015250565b6000612281602d83611ac4565b915061228c82612225565b604082019050919050565b600060208201905081810360008301526122b081612274565b9050919050565b7f4552433732313a20696e76616c696420746f6b656e2049440000000000000000600082015250565b60006122ed601883611ac4565b91506122f8826122b7565b602082019050919050565b6000602082019050818103600083015261231c816122e0565b9050919050565b7f4552433732313a2061646472657373207a65726f206973206e6f74206120766160008201527f6c6964206f776e65720000000000000000000000000000000000000000000000602082015250565b600061237f602983611ac4565b915061238a82612323565b604082019050919050565b600060208201905081810360008301526123ae81612372565b9050919050565b600081905092915050565b60006123cb82611ab9565b6123d581856123b5565b93506123e5818560208601611ad5565b80840191505092915050565b60006123fd82856123c0565b915061240982846123c0565b91508190509392505050565b7f4552433732313a207472616e736665722066726f6d20696e636f72726563742060008201527f6f776e6572000000000000000000000000000000000000000000000000000000602082015250565b6000612471602583611ac4565b915061247c82612415565b604082019050919050565b600060208201905081810360008301526124a081612464565b9050919050565b7f4552433732313a207472616e7366657220746f20746865207a65726f2061646460008201527f7265737300000000000000000000000000000000000000000000000000000000602082015250565b6000612503602483611ac4565b915061250e826124a7565b604082019050919050565b60006020820190508181036000830152612532816124f6565b9050919050565b7f4552433732313a206d696e7420746f20746865207a65726f2061646472657373600082015250565b600061256f602083611ac4565b915061257a82612539565b602082019050919050565b6000602082019050818103600083015261259e81612562565b9050919050565b7f4552433732313a20746f6b656e20616c7265616479206d696e74656400000000600082015250565b60006125db601c83611ac4565b91506125e6826125a5565b602082019050919050565b6000602082019050818103600083015261260a816125ce565b9050919050565b7f45524337323155524953746f726167653a2055524920736574206f66206e6f6e60008201527f6578697374656e7420746f6b656e000000000000000000000000000000000000602082015250565b600061266d602e83611ac4565b915061267882612611565b604082019050919050565b6000602082019050818103600083015261269c81612660565b9050919050565b60008190508160005260206000209050919050565b60006020601f8301049050919050565b600082821b905092915050565b6000600883026127057fffffffffffffffffffffffffffffffffffffffffffffffffffffffffffffffff826126c8565b61270f86836126c8565b95508019841693508086168417925050509392505050565b6000819050919050565b600061274c61274761274284611b6b565b612727565b611b6b565b9050919050565b6000819050919050565b61276683612731565b61277a61277282612753565b8484546126d5565b825550505050565b600090565b61278f612782565b61279a81848461275d565b505050565b5b818110156127be576127b3600082612787565b6001810190506127a0565b5050565b601f821115612803576127d4816126a3565b6127dd846126b8565b810160208510156127ec578190505b6128006127f8856126b8565b83018261279f565b50505b505050565b600082821c905092915050565b600061282660001984600802612808565b1980831691505092915050565b600061283f8383612815565b9150826002028217905092915050565b61285882611ab9565b67ffffffffffffffff81111561287157612870611cf3565b5b61287b82546120d0565b6128868282856127c2565b600060209050601f8311600181146128b957600084156128a7578287015190505b6128b18582612833565b865550612919565b601f1984166128c7866126a3565b60005b828110156128ef578489015182556001820191506020850194506020810190506128ca565b8683101561290c5784890151612908601f891682612815565b8355505b6001600288020188555050505b505050505050565b7f4552433732313a20617070726f766520746f2063616c6c657200000000000000600082015250565b6000612957601983611ac4565b915061296282612921565b602082019050919050565b600060208201905081810360008301526129868161294a565b9050919050565b7f4552433732313a207472616e7366657220746f206e6f6e20455243373231526560008201527f63656976657220696d706c656d656e7465720000000000000000000000000000602082015250565b60006129e9603283611ac4565b91506129f48261298d565b604082019050919050565b60006020820190508181036000830152612a18816129dc565b9050919050565b7f4e487b7100000000000000000000000000000000000000000000000000000000600052601160045260246000fd5b6000612a5982611b6b565b9150612a6483611b6b565b9250828203905081811115612a7c57612a7b612a1f565b5b92915050565b6000612a8d82611b6b565b9150612a9883611b6b565b9250828201905080821115612ab057612aaf612a1f565b5b92915050565b600081519050919050565b600082825260208201905092915050565b6000612add82612ab6565b612ae78185612ac1565b9350612af7818560208601611ad5565b612b0081611aff565b840191505092915050565b6000608082019050612b206000830187611c00565b612b2d6020830186611c00565b612b3a6040830185611e7a565b8181036060830152612b4c8184612ad2565b905095945050505050565b600081519050612b6681611a2a565b92915050565b600060208284031215612b8257612b816119f4565b5b6000612b9084828501612b57565b91505092915050565b7f4e487b7100000000000000000000000000000000000000000000000000000000600052601260045260246000fdfea2646970667358221220a430e035f5355474907ec7cc299ac9a824b93bb6be0631ff1e646a9012126ee664736f6c63430008110033",
  "devdoc": {
    "kind": "dev",
    "methods": {
      "approve(address,uint256)": {
        "details": "See {IERC721-approve}."
      },
      "balanceOf(address)": {
        "details": "See {IERC721-balanceOf}."
      },
      "getApproved(uint256)": {
        "details": "See {IERC721-getApproved}."
      },
      "isApprovedForAll(address,address)": {
        "details": "See {IERC721-isApprovedForAll}."
      },
      "name()": {
        "details": "See {IERC721Metadata-name}."
      },
      "ownerOf(uint256)": {
        "details": "See {IERC721-ownerOf}."
      },
      "safeTransferFrom(address,address,uint256)": {
        "details": "See {IERC721-safeTransferFrom}."
      },
      "safeTransferFrom(address,address,uint256,bytes)": {
        "details": "See {IERC721-safeTransferFrom}."
      },
      "setApprovalForAll(address,bool)": {
        "details": "See {IERC721-setApprovalForAll}."
      },
      "supportsInterface(bytes4)": {
        "details": "See {IERC165-supportsInterface}."
      },
      "symbol()": {
        "details": "See {IERC721Metadata-symbol}."
      },
      "tokenURI(uint256)": {
        "details": "See {IERC721Metadata-tokenURI}."
      },
      "transferFrom(address,address,uint256)": {
        "details": "See {IERC721-transferFrom}."
      }
    },
    "version": 1
  },
  "userdoc": {
    "kind": "user",
    "methods": {},
    "version": 1
  },
  "storageLayout": {
    "storage": [
      {
        "astId": 25,
        "contract": "contracts/Trophy.sol:Trophy",
        "label": "_name",
        "offset": 0,
        "slot": "0",
        "type": "t_string_storage"
      },
      {
        "astId": 27,
        "contract": "contracts/Trophy.sol:Trophy",
        "label": "_symbol",
        "offset": 0,
        "slot": "1",
        "type": "t_string_storage"
      },
      {
        "astId": 31,
        "contract": "contracts/Trophy.sol:Trophy",
        "label": "_owners",
        "offset": 0,
        "slot": "2",
        "type": "t_mapping(t_uint256,t_address)"
      },
      {
        "astId": 35,
        "contract": "contracts/Trophy.sol:Trophy",
        "label": "_balances",
        "offset": 0,
        "slot": "3",
        "type": "t_mapping(t_address,t_uint256)"
      },
      {
        "astId": 39,
        "contract": "contracts/Trophy.sol:Trophy",
        "label": "_tokenApprovals",
        "offset": 0,
        "slot": "4",
        "type": "t_mapping(t_uint256,t_address)"
      },
      {
        "astId": 45,
        "contract": "contracts/Trophy.sol:Trophy",
        "label": "_operatorApprovals",
        "offset": 0,
        "slot": "5",
        "type": "t_mapping(t_address,t_mapping(t_address,t_bool))"
      },
      {
        "astId": 1091,
        "contract": "contracts/Trophy.sol:Trophy",
        "label": "_tokenURIs",
        "offset": 0,
        "slot": "6",
        "type": "t_mapping(t_uint256,t_string_storage)"
      },
      {
        "astId": 2745,
        "contract": "contracts/Trophy.sol:Trophy",
        "label": "_tokenIds",
        "offset": 0,
        "slot": "7",
        "type": "t_struct(Counter)1588_storage"
      }
    ],
    "types": {
      "t_address": {
        "encoding": "inplace",
        "label": "address",
        "numberOfBytes": "20"
      },
      "t_bool": {
        "encoding": "inplace",
        "label": "bool",
        "numberOfBytes": "1"
      },
      "t_mapping(t_address,t_bool)": {
        "encoding": "mapping",
        "key": "t_address",
        "label": "mapping(address => bool)",
        "numberOfBytes": "32",
        "value": "t_bool"
      },
      "t_mapping(t_address,t_mapping(t_address,t_bool))": {
        "encoding": "mapping",
        "key": "t_address",
        "label": "mapping(address => mapping(address => bool))",
        "numberOfBytes": "32",
        "value": "t_mapping(t_address,t_bool)"
      },
      "t_mapping(t_address,t_uint256)": {
        "encoding": "mapping",
        "key": "t_address",
        "label": "mapping(address => uint256)",
        "numberOfBytes": "32",
        "value": "t_uint256"
      },
      "t_mapping(t_uint256,t_address)": {
        "encoding": "mapping",
        "key": "t_uint256",
        "label": "mapping(uint256 => address)",
        "numberOfBytes": "32",
        "value": "t_address"
      },
      "t_mapping(t_uint256,t_string_storage)": {
        "encoding": "mapping",
        "key": "t_uint256",
        "label": "mapping(uint256 => string)",
        "numberOfBytes": "32",
        "value": "t_string_storage"
      },
      "t_string_storage": {
        "encoding": "bytes",
        "label": "string",
        "numberOfBytes": "32"
      },
      "t_struct(Counter)1588_storage": {
        "encoding": "inplace",
        "label": "struct Counters.Counter",
        "members": [
          {
            "astId": 1587,
            "contract": "contracts/Trophy.sol:Trophy",
            "label": "_value",
            "offset": 0,
            "slot": "0",
            "type": "t_uint256"
          }
        ],
        "numberOfBytes": "32"
      },
      "t_uint256": {
        "encoding": "inplace",
        "label": "uint256",
        "numberOfBytes": "32"
      }
    }
  }
}